{
  "contractName": "Election",
  "abi": [
    {
      "constant": true,
      "inputs": [],
      "name": "candidatesCount",
      "outputs": [
        {
          "name": "",
          "type": "uint256"
        }
      ],
      "payable": false,
      "stateMutability": "view",
      "type": "function"
    },
    {
      "constant": true,
      "inputs": [
        {
          "name": "",
          "type": "uint256"
        }
      ],
      "name": "candidates",
      "outputs": [
        {
          "name": "id",
          "type": "uint256"
        },
        {
          "name": "name",
          "type": "string"
        },
        {
          "name": "voteCount",
          "type": "uint256"
        }
      ],
      "payable": false,
      "stateMutability": "view",
      "type": "function"
    },
    {
      "inputs": [],
      "payable": false,
      "stateMutability": "nonpayable",
      "type": "constructor"
    }
  ],
  "bytecode": "0x6060604052341561000f57600080fd5b6100606040805190810160405280600b81526020017f43616e64696461746520310000000000000000000000000000000000000000008152506100b664010000000002610170176401000000009004565b6100b16040805190810160405280600b81526020017f43616e64696461746520320000000000000000000000000000000000000000008152506100b664010000000002610170176401000000009004565b6101d7565b600160008154809291906001019190505550606060405190810160405280600154815260200182815260200160008152506000806001548152602001908152602001600020600082015181600001556020820151816001019080519060200190610121929190610132565b506040820151816002015590505050565b828054600181600116156101000203166002900490600052602060002090601f016020900481019282601f1061017357805160ff19168380011785556101a1565b828001600101855582156101a1579182015b828111156101a0578251825591602001919060010190610185565b5b5090506101ae91906101b2565b5090565b6101d491905b808211156101d05760008160009055506001016101b8565b5090565b90565b6102bd806101e66000396000f30060606040526004361061004c576000357c0100000000000000000000000000000000000000000000000000000000900463ffffffff1680632d35a8a2146100515780633477ee2e1461007a575b600080fd5b341561005c57600080fd5b610064610141565b6040518082815260200191505060405180910390f35b341561008557600080fd5b61009b6004808035906020019091905050610147565b60405180848152602001806020018381526020018281038252848181546001816001161561010002031660029004815260200191508054600181600116156101000203166002900480156101305780601f1061010557610100808354040283529160200191610130565b820191906000526020600020905b81548152906001019060200180831161011357829003601f168201915b505094505050505060405180910390f35b60015481565b600060205280600052604060002060009150905080600001549080600101908060020154905083565b6001600081548092919060010191905055506060604051908101604052806001548152602001828152602001600081525060008060015481526020019081526020016000206000820151816000015560208201518160010190805190602001906101db9291906101ec565b506040820151816002015590505050565b828054600181600116156101000203166002900490600052602060002090601f016020900481019282601f1061022d57805160ff191683800117855561025b565b8280016001018555821561025b579182015b8281111561025a57825182559160200191906001019061023f565b5b509050610268919061026c565b5090565b61028e91905b8082111561028a576000816000905550600101610272565b5090565b905600a165627a7a723058206a49f7a55f245471e24d30cc9eee7e64d038a2e9f9f815fc9420c648c9a3aaec0029",
  "source": "pragma solidity ^0.4.19;\n\ncontract Election {\n\t\n\t// Model a Candidate\n\tstruct Candidate {\n\t\tuint id;\n\t\tstring name;\n\t\tuint voteCount;\n\t}\n\n\t// Store Candidates\n\t// Fetch a Candidate\n\tmapping( uint => Candidate ) public candidates;\n\n\t// Store a Candidates Count\n\tuint public candidatesCount;\n\n\t// Constructor\n\tfunction Election () public {\n\t\taddCandidate( \"Candidate 1\");\n\t\taddCandidate( \"Candidate 2\");\n\t}\n\n\tfunction addCandidate (string _name) private {\n\t\tcandidatesCount++;\n\t\tcandidates[candidatesCount] = Candidate( candidatesCount, _name, 0 );\n\t}\n}",
  "sourcePath": "/Users/geninsin/Code/Etherium/election/contracts/Election.sol",
  "compiler": {
    "name": "solc",
    "version": "0.4.19+commit.c4cbbb05.Emscripten.clang"
  },
  "schemaVersion": "2.0.0",
  "updatedAt": "2018-03-13T01:37:04.400Z"
}